{
  "_format": "hh-sol-artifact-1",
  "contractName": "On_chain_NFT",
  "sourceName": "contracts/On_chain_NFT.sol",
  "abi": [
    {
      "inputs": [],
      "stateMutability": "nonpayable",
      "type": "constructor"
    },
    {
      "inputs": [
        {
          "internalType": "address",
          "name": "sender",
          "type": "address"
        },
        {
          "internalType": "uint256",
          "name": "tokenId",
          "type": "uint256"
        },
        {
          "internalType": "address",
          "name": "owner",
          "type": "address"
        }
      ],
      "name": "ERC721IncorrectOwner",
      "type": "error"
    },
    {
      "inputs": [
        {
          "internalType": "address",
          "name": "operator",
          "type": "address"
        },
        {
          "internalType": "uint256",
          "name": "tokenId",
          "type": "uint256"
        }
      ],
      "name": "ERC721InsufficientApproval",
      "type": "error"
    },
    {
      "inputs": [
        {
          "internalType": "address",
          "name": "approver",
          "type": "address"
        }
      ],
      "name": "ERC721InvalidApprover",
      "type": "error"
    },
    {
      "inputs": [
        {
          "internalType": "address",
          "name": "operator",
          "type": "address"
        }
      ],
      "name": "ERC721InvalidOperator",
      "type": "error"
    },
    {
      "inputs": [
        {
          "internalType": "address",
          "name": "owner",
          "type": "address"
        }
      ],
      "name": "ERC721InvalidOwner",
      "type": "error"
    },
    {
      "inputs": [
        {
          "internalType": "address",
          "name": "receiver",
          "type": "address"
        }
      ],
      "name": "ERC721InvalidReceiver",
      "type": "error"
    },
    {
      "inputs": [
        {
          "internalType": "address",
          "name": "sender",
          "type": "address"
        }
      ],
      "name": "ERC721InvalidSender",
      "type": "error"
    },
    {
      "inputs": [
        {
          "internalType": "uint256",
          "name": "tokenId",
          "type": "uint256"
        }
      ],
      "name": "ERC721NonexistentToken",
      "type": "error"
    },
    {
      "inputs": [
        {
          "internalType": "uint256",
          "name": "tokenId",
          "type": "uint256"
        }
      ],
      "name": "InvalidTokenId",
      "type": "error"
    },
    {
      "inputs": [
        {
          "internalType": "address",
          "name": "",
          "type": "address"
        }
      ],
      "name": "OnlyOwner",
      "type": "error"
    },
    {
      "anonymous": false,
      "inputs": [
        {
          "indexed": true,
          "internalType": "address",
          "name": "owner",
          "type": "address"
        },
        {
          "indexed": true,
          "internalType": "address",
          "name": "approved",
          "type": "address"
        },
        {
          "indexed": true,
          "internalType": "uint256",
          "name": "tokenId",
          "type": "uint256"
        }
      ],
      "name": "Approval",
      "type": "event"
    },
    {
      "anonymous": false,
      "inputs": [
        {
          "indexed": true,
          "internalType": "address",
          "name": "owner",
          "type": "address"
        },
        {
          "indexed": true,
          "internalType": "address",
          "name": "operator",
          "type": "address"
        },
        {
          "indexed": false,
          "internalType": "bool",
          "name": "approved",
          "type": "bool"
        }
      ],
      "name": "ApprovalForAll",
      "type": "event"
    },
    {
      "anonymous": false,
      "inputs": [
        {
          "indexed": true,
          "internalType": "address",
          "name": "from",
          "type": "address"
        },
        {
          "indexed": true,
          "internalType": "address",
          "name": "to",
          "type": "address"
        },
        {
          "indexed": true,
          "internalType": "uint256",
          "name": "tokenId",
          "type": "uint256"
        }
      ],
      "name": "Transfer",
      "type": "event"
    },
    {
      "inputs": [
        {
          "internalType": "address",
          "name": "to",
          "type": "address"
        },
        {
          "internalType": "uint256",
          "name": "tokenId",
          "type": "uint256"
        }
      ],
      "name": "approve",
      "outputs": [],
      "stateMutability": "nonpayable",
      "type": "function"
    },
    {
      "inputs": [
        {
          "internalType": "address",
          "name": "owner",
          "type": "address"
        }
      ],
      "name": "balanceOf",
      "outputs": [
        {
          "internalType": "uint256",
          "name": "",
          "type": "uint256"
        }
      ],
      "stateMutability": "view",
      "type": "function"
    },
    {
      "inputs": [],
      "name": "counter",
      "outputs": [
        {
          "internalType": "uint256",
          "name": "",
          "type": "uint256"
        }
      ],
      "stateMutability": "view",
      "type": "function"
    },
    {
      "inputs": [],
      "name": "generateRandomColor",
      "outputs": [
        {
          "internalType": "string",
          "name": "",
          "type": "string"
        }
      ],
      "stateMutability": "view",
      "type": "function"
    },
    {
      "inputs": [
        {
          "internalType": "uint256",
          "name": "tokenId",
          "type": "uint256"
        }
      ],
      "name": "getApproved",
      "outputs": [
        {
          "internalType": "address",
          "name": "",
          "type": "address"
        }
      ],
      "stateMutability": "view",
      "type": "function"
    },
    {
      "inputs": [
        {
          "internalType": "address",
          "name": "owner",
          "type": "address"
        }
      ],
      "name": "getNftsOwned",
      "outputs": [
        {
          "components": [
            {
              "internalType": "uint256",
              "name": "tokenId",
              "type": "uint256"
            },
            {
              "internalType": "string",
              "name": "metadata",
              "type": "string"
            }
          ],
          "internalType": "struct On_chain_NFT.TokenAndMetadata[]",
          "name": "",
          "type": "tuple[]"
        }
      ],
      "stateMutability": "view",
      "type": "function"
    },
    {
      "inputs": [
        {
          "internalType": "address",
          "name": "owner",
          "type": "address"
        },
        {
          "internalType": "address",
          "name": "operator",
          "type": "address"
        }
      ],
      "name": "isApprovedForAll",
      "outputs": [
        {
          "internalType": "bool",
          "name": "",
          "type": "bool"
        }
      ],
      "stateMutability": "view",
      "type": "function"
    },
    {
      "inputs": [
        {
          "internalType": "address",
          "name": "_to",
          "type": "address"
        }
      ],
      "name": "mintTo",
      "outputs": [],
      "stateMutability": "nonpayable",
      "type": "function"
    },
    {
      "inputs": [],
      "name": "name",
      "outputs": [
        {
          "internalType": "string",
          "name": "",
          "type": "string"
        }
      ],
      "stateMutability": "view",
      "type": "function"
    },
    {
      "inputs": [
        {
          "internalType": "uint256",
          "name": "tokenId",
          "type": "uint256"
        }
      ],
      "name": "ownerOf",
      "outputs": [
        {
          "internalType": "address",
          "name": "",
          "type": "address"
        }
      ],
      "stateMutability": "view",
      "type": "function"
    },
    {
      "inputs": [
        {
          "internalType": "uint256",
          "name": "_tokenId",
          "type": "uint256"
        }
      ],
      "name": "render",
      "outputs": [
        {
          "internalType": "string",
          "name": "",
          "type": "string"
        }
      ],
      "stateMutability": "view",
      "type": "function"
    },
    {
      "inputs": [
        {
          "internalType": "address",
          "name": "from",
          "type": "address"
        },
        {
          "internalType": "address",
          "name": "to",
          "type": "address"
        },
        {
          "internalType": "uint256",
          "name": "tokenId",
          "type": "uint256"
        }
      ],
      "name": "safeTransferFrom",
      "outputs": [],
      "stateMutability": "nonpayable",
      "type": "function"
    },
    {
      "inputs": [
        {
          "internalType": "address",
          "name": "from",
          "type": "address"
        },
        {
          "internalType": "address",
          "name": "to",
          "type": "address"
        },
        {
          "internalType": "uint256",
          "name": "tokenId",
          "type": "uint256"
        },
        {
          "internalType": "bytes",
          "name": "data",
          "type": "bytes"
        }
      ],
      "name": "safeTransferFrom",
      "outputs": [],
      "stateMutability": "nonpayable",
      "type": "function"
    },
    {
      "inputs": [
        {
          "internalType": "address",
          "name": "operator",
          "type": "address"
        },
        {
          "internalType": "bool",
          "name": "approved",
          "type": "bool"
        }
      ],
      "name": "setApprovalForAll",
      "outputs": [],
      "stateMutability": "nonpayable",
      "type": "function"
    },
    {
      "inputs": [
        {
          "internalType": "uint256",
          "name": "_tokenId",
          "type": "uint256"
        }
      ],
      "name": "shuffleColor",
      "outputs": [],
      "stateMutability": "nonpayable",
      "type": "function"
    },
    {
      "inputs": [
        {
          "internalType": "bytes4",
          "name": "interfaceId",
          "type": "bytes4"
        }
      ],
      "name": "supportsInterface",
      "outputs": [
        {
          "internalType": "bool",
          "name": "",
          "type": "bool"
        }
      ],
      "stateMutability": "view",
      "type": "function"
    },
    {
      "inputs": [],
      "name": "symbol",
      "outputs": [
        {
          "internalType": "string",
          "name": "",
          "type": "string"
        }
      ],
      "stateMutability": "view",
      "type": "function"
    },
    {
      "inputs": [
        {
          "internalType": "uint256",
          "name": "",
          "type": "uint256"
        }
      ],
      "name": "tokenIdToColor",
      "outputs": [
        {
          "internalType": "string",
          "name": "",
          "type": "string"
        }
      ],
      "stateMutability": "view",
      "type": "function"
    },
    {
      "inputs": [
        {
          "internalType": "uint256",
          "name": "_tokenId",
          "type": "uint256"
        }
      ],
      "name": "tokenURI",
      "outputs": [
        {
          "internalType": "string",
          "name": "",
          "type": "string"
        }
      ],
      "stateMutability": "view",
      "type": "function"
    },
    {
      "inputs": [
        {
          "internalType": "address",
          "name": "from",
          "type": "address"
        },
        {
          "internalType": "address",
          "name": "to",
          "type": "address"
        },
        {
          "internalType": "uint256",
          "name": "tokenId",
          "type": "uint256"
        }
      ],
      "name": "transferFrom",
      "outputs": [],
      "stateMutability": "nonpayable",
      "type": "function"
    }
  ],
  "bytecode": "0x608060405234801561001057600080fd5b506040518060400160405280600e81526020017f52616e646f6d436f6c6f724e46540000000000000000000000000000000000008152506040518060400160405280600581526020017f52434e4654000000000000000000000000000000000000000000000000000000815250816000908161008c91906102f4565b50806001908161009c91906102f4565b5050506103c6565b600081519050919050565b7f4e487b7100000000000000000000000000000000000000000000000000000000600052604160045260246000fd5b7f4e487b7100000000000000000000000000000000000000000000000000000000600052602260045260246000fd5b6000600282049050600182168061012557607f821691505b602082108103610138576101376100de565b5b50919050565b60008190508160005260206000209050919050565b60006020601f8301049050919050565b600082821b905092915050565b6000600883026101a07fffffffffffffffffffffffffffffffffffffffffffffffffffffffffffffffff82610163565b6101aa8683610163565b95508019841693508086168417925050509392505050565b6000819050919050565b6000819050919050565b60006101f16101ec6101e7846101c2565b6101cc565b6101c2565b9050919050565b6000819050919050565b61020b836101d6565b61021f610217826101f8565b848454610170565b825550505050565b600090565b610234610227565b61023f818484610202565b505050565b5b818110156102635761025860008261022c565b600181019050610245565b5050565b601f8211156102a8576102798161013e565b61028284610153565b81016020851015610291578190505b6102a561029d85610153565b830182610244565b50505b505050565b600082821c905092915050565b60006102cb600019846008026102ad565b1980831691505092915050565b60006102e483836102ba565b9150826002028217905092915050565b6102fd826100a4565b67ffffffffffffffff811115610316576103156100af565b5b610320825461010d565b61032b828285610267565b600060209050601f83116001811461035e576000841561034c578287015190505b61035685826102d8565b8655506103be565b601f19841661036c8661013e565b60005b828110156103945784890151825560018201915060208501945060208101905061036f565b868310156103b157848901516103ad601f8916826102ba565b8355505b6001600288020188555050505b505050505050565b6137a9806103d56000396000f3fe608060405234801561001057600080fd5b506004361061012c5760003560e01c8063755edd17116100ad578063b88d4fde11610071578063b88d4fde14610341578063c321118c1461035d578063c87b56dd1461038d578063e985e9c5146103bd578063ea220717146103ed5761012c565b8063755edd171461029f5780638a32b6c6146102bb57806395d89b41146102eb578063a22cb46514610309578063af8e9813146103255761012c565b806342842e0e116100f457806342842e0e146101e757806345c8b4561461020357806361bc221a146102215780636352211e1461023f57806370a082311461026f5761012c565b806301ffc9a71461013157806306fdde0314610161578063081812fc1461017f578063095ea7b3146101af57806323b872dd146101cb575b600080fd5b61014b600480360381019061014691906123bf565b61041d565b6040516101589190612407565b60405180910390f35b6101696104ff565b60405161017691906124b2565b60405180910390f35b6101996004803603810190610194919061250a565b610591565b6040516101a69190612578565b60405180910390f35b6101c960048036038101906101c491906125bf565b6105ad565b005b6101e560048036038101906101e091906125ff565b6105c3565b005b61020160048036038101906101fc91906125ff565b6106c5565b005b61020b6106e5565b60405161021891906124b2565b60405180910390f35b610229610993565b6040516102369190612661565b60405180910390f35b6102596004803603810190610254919061250a565b610999565b6040516102669190612578565b60405180910390f35b6102896004803603810190610284919061267c565b6109ab565b6040516102969190612661565b60405180910390f35b6102b960048036038101906102b4919061267c565b610a65565b005b6102d560048036038101906102d0919061267c565b610ab6565b6040516102e29190612801565b60405180910390f35b6102f3610c4f565b60405161030091906124b2565b60405180910390f35b610323600480360381019061031e919061284f565b610ce1565b005b61033f600480360381019061033a919061250a565b610cf7565b005b61035b600480360381019061035691906129c4565b610de1565b005b6103776004803603810190610372919061250a565b610e06565b60405161038491906124b2565b60405180910390f35b6103a760048036038101906103a2919061250a565b610e41565b6040516103b491906124b2565b60405180910390f35b6103d760048036038101906103d29190612a47565b610f0a565b6040516103e49190612407565b60405180910390f35b6104076004803603810190610402919061250a565b610f9e565b60405161041491906124b2565b60405180910390f35b60007f80ac58cd000000000000000000000000000000000000000000000000000000007bffffffffffffffffffffffffffffffffffffffffffffffffffffffff1916827bffffffffffffffffffffffffffffffffffffffffffffffffffffffff191614806104e857507f5b5e139f000000000000000000000000000000000000000000000000000000007bffffffffffffffffffffffffffffffffffffffffffffffffffffffff1916827bffffffffffffffffffffffffffffffffffffffffffffffffffffffff1916145b806104f857506104f78261103e565b5b9050919050565b60606000805461050e90612ab6565b80601f016020809104026020016040519081016040528092919081815260200182805461053a90612ab6565b80156105875780601f1061055c57610100808354040283529160200191610587565b820191906000526020600020905b81548152906001019060200180831161056a57829003601f168201915b5050505050905090565b600061059c826110a8565b506105a682611130565b9050919050565b6105bf82826105ba61116d565b611175565b5050565b600073ffffffffffffffffffffffffffffffffffffffff168273ffffffffffffffffffffffffffffffffffffffff16036106355760006040517f64a0ae9200000000000000000000000000000000000000000000000000000000815260040161062c9190612578565b60405180910390fd5b6000610649838361064461116d565b611187565b90508373ffffffffffffffffffffffffffffffffffffffff168173ffffffffffffffffffffffffffffffffffffffff16146106bf578382826040517f64283d7b0000000000000000000000000000000000000000000000000000000081526004016106b693929190612ae7565b60405180910390fd5b50505050565b6106e083838360405180602001604052806000815250610de1565b505050565b606060004442336040516020016106fe93929190612b87565b6040516020818303038152906040528051906020012060001c90506000600367ffffffffffffffff81111561073657610735612899565b5b6040519080825280601f01601f1916602001820160405280156107685781602001600182028036833780820191505090505b509050601082901c60f81b8160008151811061078757610786612bc4565b5b60200101907effffffffffffffffffffffffffffffffffffffffffffffffffffffffffffff1916908160001a905350600882901c60f81b816001815181106107d2576107d1612bc4565b5b60200101907effffffffffffffffffffffffffffffffffffffffffffffffffffffffffffff1916908160001a9053508160f81b8160028151811061081957610818612bc4565b5b60200101907effffffffffffffffffffffffffffffffffffffffffffffffffffffffffffff1916908160001a905350600061087b60048360008151811061086357610862612bc4565b5b602001015160f81c60f81b60f81c60ff16901c61124b565b6108a8600f8460008151811061089457610893612bc4565b5b602001015160f81c60f81b60f81c1661124b565b6108d96004856001815181106108c1576108c0612bc4565b5b602001015160f81c60f81b60f81c60ff16901c61124b565b610906600f866001815181106108f2576108f1612bc4565b5b602001015160f81c60f81b60f81c1661124b565b61093760048760028151811061091f5761091e612bc4565b5b602001015160f81c60f81b60f81c60ff16901c61124b565b610964600f886002815181106109505761094f612bc4565b5b602001015160f81c60f81b60f81c1661124b565b60405160200161097996959493929190612c97565b604051602081830303815290604052905080935050505090565b60075481565b60006109a4826110a8565b9050919050565b60008073ffffffffffffffffffffffffffffffffffffffff168273ffffffffffffffffffffffffffffffffffffffff1603610a1e5760006040517f89c62b64000000000000000000000000000000000000000000000000000000008152600401610a159190612578565b60405180910390fd5b600360008373ffffffffffffffffffffffffffffffffffffffff1673ffffffffffffffffffffffffffffffffffffffff168152602001908152602001600020549050919050565b600060076000815480929190610a7a90612d41565b919050559050610a8a82826112d8565b610a926106e5565b600860008381526020019081526020016000209081610ab19190612f35565b505050565b60606000610b01600660008573ffffffffffffffffffffffffffffffffffffffff1673ffffffffffffffffffffffffffffffffffffffff1681526020019081526020016000206112f6565b67ffffffffffffffff811115610b1a57610b19612899565b5b604051908082528060200260200182016040528015610b5357816020015b610b40612339565b815260200190600190039081610b385790505b50905060005b610ba0600660008673ffffffffffffffffffffffffffffffffffffffff1673ffffffffffffffffffffffffffffffffffffffff1681526020019081526020016000206112f6565b811015610c45576000610bfa82600660008873ffffffffffffffffffffffffffffffffffffffff1673ffffffffffffffffffffffffffffffffffffffff16815260200190815260200160002061130b90919063ffffffff16565b90506040518060400160405280828152602001610c1683610e41565b815250838381518110610c2c57610c2b612bc4565b5b6020026020010181905250508080600101915050610b59565b5080915050919050565b606060018054610c5e90612ab6565b80601f0160208091040260200160405190810160405280929190818152602001828054610c8a90612ab6565b8015610cd75780601f10610cac57610100808354040283529160200191610cd7565b820191906000526020600020905b815481529060010190602001808311610cba57829003601f168201915b5050505050905090565b610cf3610cec61116d565b8383611325565b5050565b600754811115610d3e57806040517fed15e6cf000000000000000000000000000000000000000000000000000000008152600401610d359190612661565b60405180910390fd5b3373ffffffffffffffffffffffffffffffffffffffff16610d5e82610999565b73ffffffffffffffffffffffffffffffffffffffff1614610db657336040517f0a86c02a000000000000000000000000000000000000000000000000000000008152600401610dad9190612578565b60405180910390fd5b610dbe6106e5565b600860008381526020019081526020016000209081610ddd9190612f35565b5050565b610dec8484846105c3565b610e00610df761116d565b85858585611494565b50505050565b606060086000838152602001908152602001600020604051602001610e2b9190613206565b6040516020818303038152906040529050919050565b6060600754821115610e8a57816040517fed15e6cf000000000000000000000000000000000000000000000000000000008152600401610e819190612661565b60405180910390fd5b6000610ed7610e976104ff565b610ea085611645565b610eb1610eac87610e06565b611713565b604051602001610ec3939291906133f6565b604051602081830303815290604052611713565b9050610ee1611740565b81604051602001610ef3929190613453565b604051602081830303815290604052915050919050565b6000600560008473ffffffffffffffffffffffffffffffffffffffff1673ffffffffffffffffffffffffffffffffffffffff16815260200190815260200160002060008373ffffffffffffffffffffffffffffffffffffffff1673ffffffffffffffffffffffffffffffffffffffff16815260200190815260200160002060009054906101000a900460ff16905092915050565b60086020528060005260406000206000915090508054610fbd90612ab6565b80601f0160208091040260200160405190810160405280929190818152602001828054610fe990612ab6565b80156110365780601f1061100b57610100808354040283529160200191611036565b820191906000526020600020905b81548152906001019060200180831161101957829003601f168201915b505050505081565b60007f01ffc9a7000000000000000000000000000000000000000000000000000000007bffffffffffffffffffffffffffffffffffffffffffffffffffffffff1916827bffffffffffffffffffffffffffffffffffffffffffffffffffffffff1916149050919050565b6000806110b48361177d565b9050600073ffffffffffffffffffffffffffffffffffffffff168173ffffffffffffffffffffffffffffffffffffffff160361112757826040517f7e27328900000000000000000000000000000000000000000000000000000000815260040161111e9190612661565b60405180910390fd5b80915050919050565b60006004600083815260200190815260200160002060009054906101000a900473ffffffffffffffffffffffffffffffffffffffff169050919050565b600033905090565b61118283838360016117ba565b505050565b600060075483146111e5576111e383600660008573ffffffffffffffffffffffffffffffffffffffff1673ffffffffffffffffffffffffffffffffffffffff16815260200190815260200160002061197f90919063ffffffff16565b505b61123683600660008773ffffffffffffffffffffffffffffffffffffffff1673ffffffffffffffffffffffffffffffffffffffff16815260200190815260200160002061199990919063ffffffff16565b506112428484846119b3565b90509392505050565b6000600a8260ff16101561129257817f300000000000000000000000000000000000000000000000000000000000000060f81c6112889190613484565b60f81b90506112d3565b600a827f610000000000000000000000000000000000000000000000000000000000000060f81c6112c39190613484565b6112cd91906134b9565b60f81b90505b919050565b6112f2828260405180602001604052806000815250611bcd565b5050565b600061130482600001611bf1565b9050919050565b600061131a8360000183611c02565b60001c905092915050565b600073ffffffffffffffffffffffffffffffffffffffff168273ffffffffffffffffffffffffffffffffffffffff160361139657816040517f5b08ba1800000000000000000000000000000000000000000000000000000000815260040161138d9190612578565b60405180910390fd5b80600560008573ffffffffffffffffffffffffffffffffffffffff1673ffffffffffffffffffffffffffffffffffffffff16815260200190815260200160002060008473ffffffffffffffffffffffffffffffffffffffff1673ffffffffffffffffffffffffffffffffffffffff16815260200190815260200160002060006101000a81548160ff0219169083151502179055508173ffffffffffffffffffffffffffffffffffffffff168373ffffffffffffffffffffffffffffffffffffffff167f17307eab39ab6107e8899845ad3d59bd9653f200f220920489ca2b5937696c31836040516114879190612407565b60405180910390a3505050565b60008373ffffffffffffffffffffffffffffffffffffffff163b111561163e578273ffffffffffffffffffffffffffffffffffffffff1663150b7a02868685856040518563ffffffff1660e01b81526004016114f39493929190613543565b6020604051808303816000875af192505050801561152f57506040513d601f19601f8201168201806040525081019061152c91906135a4565b60015b6115b3573d806000811461155f576040519150601f19603f3d011682016040523d82523d6000602084013e611564565b606091505b5060008151036115ab57836040517f64a0ae920000000000000000000000000000000000000000000000000000000081526004016115a29190612578565b60405180910390fd5b805181602001fd5b63150b7a0260e01b7bffffffffffffffffffffffffffffffffffffffffffffffffffffffff1916817bffffffffffffffffffffffffffffffffffffffffffffffffffffffff19161461163c57836040517f64a0ae920000000000000000000000000000000000000000000000000000000081526004016116339190612578565b60405180910390fd5b505b5050505050565b60606000600161165484611c2d565b01905060008167ffffffffffffffff81111561167357611672612899565b5b6040519080825280601f01601f1916602001820160405280156116a55781602001600182028036833780820191505090505b509050600082602001820190505b600115611708578080600190039150507f3031323334353637383961626364656600000000000000000000000000000000600a86061a8153600a85816116fc576116fb6135d1565b5b049450600085036116b3575b819350505050919050565b606061173982604051806060016040528060408152602001613734604091396001611d80565b9050919050565b60606040518060400160405280601d81526020017f646174613a6170706c69636174696f6e2f6a736f6e3b6261736536342c000000815250905090565b60006002600083815260200190815260200160002060009054906101000a900473ffffffffffffffffffffffffffffffffffffffff169050919050565b80806117f35750600073ffffffffffffffffffffffffffffffffffffffff168273ffffffffffffffffffffffffffffffffffffffff1614155b15611927576000611803846110a8565b9050600073ffffffffffffffffffffffffffffffffffffffff168373ffffffffffffffffffffffffffffffffffffffff161415801561186e57508273ffffffffffffffffffffffffffffffffffffffff168173ffffffffffffffffffffffffffffffffffffffff1614155b8015611881575061187f8184610f0a565b155b156118c357826040517fa9fbf51f0000000000000000000000000000000000000000000000000000000081526004016118ba9190612578565b60405180910390fd5b811561192557838573ffffffffffffffffffffffffffffffffffffffff168273ffffffffffffffffffffffffffffffffffffffff167f8c5be1e5ebec7d5bd14f71427d1e84f3dd0314c0f7b2291e5b200ac8c7c3b92560405160405180910390a45b505b836004600085815260200190815260200160002060006101000a81548173ffffffffffffffffffffffffffffffffffffffff021916908373ffffffffffffffffffffffffffffffffffffffff16021790555050505050565b6000611991836000018360001b611f14565b905092915050565b60006119ab836000018360001b612028565b905092915050565b6000806119bf8461177d565b9050600073ffffffffffffffffffffffffffffffffffffffff168373ffffffffffffffffffffffffffffffffffffffff1614611a0157611a00818486612098565b5b600073ffffffffffffffffffffffffffffffffffffffff168173ffffffffffffffffffffffffffffffffffffffff1614611a9257611a436000856000806117ba565b6001600360008373ffffffffffffffffffffffffffffffffffffffff1673ffffffffffffffffffffffffffffffffffffffff168152602001908152602001600020600082825403925050819055505b600073ffffffffffffffffffffffffffffffffffffffff168573ffffffffffffffffffffffffffffffffffffffff1614611b15576001600360008773ffffffffffffffffffffffffffffffffffffffff1673ffffffffffffffffffffffffffffffffffffffff168152602001908152602001600020600082825401925050819055505b846002600086815260200190815260200160002060006101000a81548173ffffffffffffffffffffffffffffffffffffffff021916908373ffffffffffffffffffffffffffffffffffffffff160217905550838573ffffffffffffffffffffffffffffffffffffffff168273ffffffffffffffffffffffffffffffffffffffff167fddf252ad1be2c89b69c2b068fc378daa952ba7f163c4a11628f55a4df523b3ef60405160405180910390a4809150509392505050565b611bd7838361215c565b611bec611be261116d565b6000858585611494565b505050565b600081600001805490509050919050565b6000826000018281548110611c1a57611c19612bc4565b5b9060005260206000200154905092915050565b600080600090507a184f03e93ff9f4daa797ed6e38ed64bf6a1f0100000000000000008310611c8b577a184f03e93ff9f4daa797ed6e38ed64bf6a1f0100000000000000008381611c8157611c806135d1565b5b0492506040810190505b6d04ee2d6d415b85acef81000000008310611cc8576d04ee2d6d415b85acef81000000008381611cbe57611cbd6135d1565b5b0492506020810190505b662386f26fc100008310611cf757662386f26fc100008381611ced57611cec6135d1565b5b0492506010810190505b6305f5e1008310611d20576305f5e1008381611d1657611d156135d1565b5b0492506008810190505b6127108310611d45576127108381611d3b57611d3a6135d1565b5b0492506004810190505b60648310611d685760648381611d5e57611d5d6135d1565b5b0492506002810190505b600a8310611d77576001810190505b80915050919050565b60606000845103611da257604051806020016040528060008152509050611f0d565b600082611dd4576003600286516004611dbb9190613600565b611dc59190613642565b611dcf9190613676565b611dfb565b600360028651611de49190613642565b611dee9190613676565b6004611dfa9190613600565b5b905060008167ffffffffffffffff811115611e1957611e18612899565b5b6040519080825280601f01601f191660200182016040528015611e4b5781602001600182028036833780820191505090505b50905060018501602082018788518901602081018051600082525b82841015611ec1576003840193508351603f8160121c168701518653600186019550603f81600c1c168701518653600186019550603f8160061c168701518653600186019550603f8116870151865360018601955050611e66565b8082528915611f015760038c510660018114611ee45760028114611ef757611eff565b603d6001870353603d6002870353611eff565b603d60018703535b505b50505050505080925050505b9392505050565b6000808360010160008481526020019081526020016000205490506000811461201c576000600182611f4691906136a7565b9050600060018660000180549050611f5e91906136a7565b9050808214611fcd576000866000018281548110611f7f57611f7e612bc4565b5b9060005260206000200154905080876000018481548110611fa357611fa2612bc4565b5b90600052602060002001819055508387600101600083815260200190815260200160002081905550505b85600001805480611fe157611fe06136db565b5b600190038181906000526020600020016000905590558560010160008681526020019081526020016000206000905560019350505050612022565b60009150505b92915050565b60006120348383612255565b61208d578260000182908060018154018082558091505060019003906000526020600020016000909190919091505582600001805490508360010160008481526020019081526020016000208190555060019050612092565b600090505b92915050565b6120a3838383612278565b61215757600073ffffffffffffffffffffffffffffffffffffffff168373ffffffffffffffffffffffffffffffffffffffff160361211857806040517f7e27328900000000000000000000000000000000000000000000000000000000815260040161210f9190612661565b60405180910390fd5b81816040517f177e802f00000000000000000000000000000000000000000000000000000000815260040161214e92919061370a565b60405180910390fd5b505050565b600073ffffffffffffffffffffffffffffffffffffffff168273ffffffffffffffffffffffffffffffffffffffff16036121ce5760006040517f64a0ae920000000000000000000000000000000000000000000000000000000081526004016121c59190612578565b60405180910390fd5b60006121dc83836000611187565b9050600073ffffffffffffffffffffffffffffffffffffffff168173ffffffffffffffffffffffffffffffffffffffff16146122505760006040517f73c6ac6e0000000000000000000000000000000000000000000000000000000081526004016122479190612578565b60405180910390fd5b505050565b600080836001016000848152602001908152602001600020541415905092915050565b60008073ffffffffffffffffffffffffffffffffffffffff168373ffffffffffffffffffffffffffffffffffffffff161415801561233057508273ffffffffffffffffffffffffffffffffffffffff168473ffffffffffffffffffffffffffffffffffffffff1614806122f157506122f08484610f0a565b5b8061232f57508273ffffffffffffffffffffffffffffffffffffffff1661231783611130565b73ffffffffffffffffffffffffffffffffffffffff16145b5b90509392505050565b604051806040016040528060008152602001606081525090565b6000604051905090565b600080fd5b600080fd5b60007fffffffff0000000000000000000000000000000000000000000000000000000082169050919050565b61239c81612367565b81146123a757600080fd5b50565b6000813590506123b981612393565b92915050565b6000602082840312156123d5576123d461235d565b5b60006123e3848285016123aa565b91505092915050565b60008115159050919050565b612401816123ec565b82525050565b600060208201905061241c60008301846123f8565b92915050565b600081519050919050565b600082825260208201905092915050565b60005b8381101561245c578082015181840152602081019050612441565b60008484015250505050565b6000601f19601f8301169050919050565b600061248482612422565b61248e818561242d565b935061249e81856020860161243e565b6124a781612468565b840191505092915050565b600060208201905081810360008301526124cc8184612479565b905092915050565b6000819050919050565b6124e7816124d4565b81146124f257600080fd5b50565b600081359050612504816124de565b92915050565b6000602082840312156125205761251f61235d565b5b600061252e848285016124f5565b91505092915050565b600073ffffffffffffffffffffffffffffffffffffffff82169050919050565b600061256282612537565b9050919050565b61257281612557565b82525050565b600060208201905061258d6000830184612569565b92915050565b61259c81612557565b81146125a757600080fd5b50565b6000813590506125b981612593565b92915050565b600080604083850312156125d6576125d561235d565b5b60006125e4858286016125aa565b92505060206125f5858286016124f5565b9150509250929050565b6000806000606084860312156126185761261761235d565b5b6000612626868287016125aa565b9350506020612637868287016125aa565b9250506040612648868287016124f5565b9150509250925092565b61265b816124d4565b82525050565b60006020820190506126766000830184612652565b92915050565b6000602082840312156126925761269161235d565b5b60006126a0848285016125aa565b91505092915050565b600081519050919050565b600082825260208201905092915050565b6000819050602082019050919050565b6126de816124d4565b82525050565b600082825260208201905092915050565b600061270082612422565b61270a81856126e4565b935061271a81856020860161243e565b61272381612468565b840191505092915050565b600060408301600083015161274660008601826126d5565b506020830151848203602086015261275e82826126f5565b9150508091505092915050565b6000612777838361272e565b905092915050565b6000602082019050919050565b6000612797826126a9565b6127a181856126b4565b9350836020820285016127b3856126c5565b8060005b858110156127ef57848403895281516127d0858261276b565b94506127db8361277f565b925060208a019950506001810190506127b7565b50829750879550505050505092915050565b6000602082019050818103600083015261281b818461278c565b905092915050565b61282c816123ec565b811461283757600080fd5b50565b60008135905061284981612823565b92915050565b600080604083850312156128665761286561235d565b5b6000612874858286016125aa565b92505060206128858582860161283a565b9150509250929050565b600080fd5b600080fd5b7f4e487b7100000000000000000000000000000000000000000000000000000000600052604160045260246000fd5b6128d182612468565b810181811067ffffffffffffffff821117156128f0576128ef612899565b5b80604052505050565b6000612903612353565b905061290f82826128c8565b919050565b600067ffffffffffffffff82111561292f5761292e612899565b5b61293882612468565b9050602081019050919050565b82818337600083830152505050565b600061296761296284612914565b6128f9565b90508281526020810184848401111561298357612982612894565b5b61298e848285612945565b509392505050565b600082601f8301126129ab576129aa61288f565b5b81356129bb848260208601612954565b91505092915050565b600080600080608085870312156129de576129dd61235d565b5b60006129ec878288016125aa565b94505060206129fd878288016125aa565b9350506040612a0e878288016124f5565b925050606085013567ffffffffffffffff811115612a2f57612a2e612362565b5b612a3b87828801612996565b91505092959194509250565b60008060408385031215612a5e57612a5d61235d565b5b6000612a6c858286016125aa565b9250506020612a7d858286016125aa565b9150509250929050565b7f4e487b7100000000000000000000000000000000000000000000000000000000600052602260045260246000fd5b60006002820490506001821680612ace57607f821691505b602082108103612ae157612ae0612a87565b5b50919050565b6000606082019050612afc6000830186612569565b612b096020830185612652565b612b166040830184612569565b949350505050565b6000819050919050565b612b39612b34826124d4565b612b1e565b82525050565b60008160601b9050919050565b6000612b5782612b3f565b9050919050565b6000612b6982612b4c565b9050919050565b612b81612b7c82612557565b612b5e565b82525050565b6000612b938286612b28565b602082019150612ba38285612b28565b602082019150612bb38284612b70565b601482019150819050949350505050565b7f4e487b7100000000000000000000000000000000000000000000000000000000600052603260045260246000fd5b600081905092915050565b7f2300000000000000000000000000000000000000000000000000000000000000600082015250565b6000612c34600183612bf3565b9150612c3f82612bfe565b600182019050919050565b60007fff0000000000000000000000000000000000000000000000000000000000000082169050919050565b6000819050919050565b612c91612c8c82612c4a565b612c76565b82525050565b6000612ca282612c27565b9150612cae8289612c80565b600182019150612cbe8288612c80565b600182019150612cce8287612c80565b600182019150612cde8286612c80565b600182019150612cee8285612c80565b600182019150612cfe8284612c80565b600182019150819050979650505050505050565b7f4e487b7100000000000000000000000000000000000000000000000000000000600052601160045260246000fd5b6000612d4c826124d4565b91507fffffffffffffffffffffffffffffffffffffffffffffffffffffffffffffffff8203612d7e57612d7d612d12565b5b600182019050919050565b60008190508160005260206000209050919050565b60006020601f8301049050919050565b600082821b905092915050565b600060088302612deb7fffffffffffffffffffffffffffffffffffffffffffffffffffffffffffffffff82612dae565b612df58683612dae565b95508019841693508086168417925050509392505050565b6000819050919050565b6000612e32612e2d612e28846124d4565b612e0d565b6124d4565b9050919050565b6000819050919050565b612e4c83612e17565b612e60612e5882612e39565b848454612dbb565b825550505050565b600090565b612e75612e68565b612e80818484612e43565b505050565b5b81811015612ea457612e99600082612e6d565b600181019050612e86565b5050565b601f821115612ee957612eba81612d89565b612ec384612d9e565b81016020851015612ed2578190505b612ee6612ede85612d9e565b830182612e85565b50505b505050565b600082821c905092915050565b6000612f0c60001984600802612eee565b1980831691505092915050565b6000612f258383612efb565b9150826002028217905092915050565b612f3e82612422565b67ffffffffffffffff811115612f5757612f56612899565b5b612f618254612ab6565b612f6c828285612ea8565b600060209050601f831160018114612f9f5760008415612f8d578287015190505b612f978582612f19565b865550612fff565b601f198416612fad86612d89565b60005b82811015612fd557848901518255600182019150602085019450602081019050612fb0565b86831015612ff25784890151612fee601f891682612efb565b8355505b6001600288020188555050505b505050505050565b7f3c73766720786d6c6e733d27687474703a2f2f7777772e77332e6f72672f323060008201527f30302f737667272076696577426f783d2730203020313032342031303234273e602082015250565b6000613063604083612bf3565b915061306e82613007565b604082019050919050565b7f3c726563742077696474683d273130323427206865696768743d27313032342760008201527f2066696c6c3d2700000000000000000000000000000000000000000000000000602082015250565b60006130d5602783612bf3565b91506130e082613079565b602782019050919050565b600081546130f881612ab6565b6131028186612bf3565b9450600182166000811461311d576001811461313257613165565b60ff1983168652811515820286019350613165565b61313b85612d89565b60005b8381101561315d5781548189015260018201915060208101905061313e565b838801955050505b50505092915050565b7f27202f3e00000000000000000000000000000000000000000000000000000000600082015250565b60006131a4600483612bf3565b91506131af8261316e565b600482019050919050565b7f3c2f7376673e0000000000000000000000000000000000000000000000000000600082015250565b60006131f0600683612bf3565b91506131fb826131ba565b600682019050919050565b600061321182613056565b915061321c826130c8565b915061322882846130eb565b915061323382613197565b915061323e826131e3565b915081905092915050565b7f7b226e616d65223a202200000000000000000000000000000000000000000000600082015250565b600061327f600a83612bf3565b915061328a82613249565b600a82019050919050565b60006132a082612422565b6132aa8185612bf3565b93506132ba81856020860161243e565b80840191505092915050565b7f20233a2000000000000000000000000000000000000000000000000000000000600082015250565b60006132fc600483612bf3565b9150613307826132c6565b600482019050919050565b7f222c226465736372697074696f6e223a202252616e646f6d20636f6c6f72732060008201527f61726520707265747479206f7220626f72696e6721222c2022696d616765223a60208201527f2022646174613a696d6167652f7376672b786d6c3b6261736536342c00000000604082015250565b6000613394605c83612bf3565b915061339f82613312565b605c82019050919050565b7f227d000000000000000000000000000000000000000000000000000000000000600082015250565b60006133e0600283612bf3565b91506133eb826133aa565b600282019050919050565b600061340182613272565b915061340d8286613295565b9150613418826132ef565b91506134248285613295565b915061342f82613387565b915061343b8284613295565b9150613446826133d3565b9150819050949350505050565b600061345f8285613295565b915061346b8284613295565b91508190509392505050565b600060ff82169050919050565b600061348f82613477565b915061349a83613477565b9250828201905060ff8111156134b3576134b2612d12565b5b92915050565b60006134c482613477565b91506134cf83613477565b9250828203905060ff8111156134e8576134e7612d12565b5b92915050565b600081519050919050565b600082825260208201905092915050565b6000613515826134ee565b61351f81856134f9565b935061352f81856020860161243e565b61353881612468565b840191505092915050565b60006080820190506135586000830187612569565b6135656020830186612569565b6135726040830185612652565b8181036060830152613584818461350a565b905095945050505050565b60008151905061359e81612393565b92915050565b6000602082840312156135ba576135b961235d565b5b60006135c88482850161358f565b91505092915050565b7f4e487b7100000000000000000000000000000000000000000000000000000000600052601260045260246000fd5b600061360b826124d4565b9150613616836124d4565b9250828202613624816124d4565b9150828204841483151761363b5761363a612d12565b5b5092915050565b600061364d826124d4565b9150613658836124d4565b92508282019050808211156136705761366f612d12565b5b92915050565b6000613681826124d4565b915061368c836124d4565b92508261369c5761369b6135d1565b5b828204905092915050565b60006136b2826124d4565b91506136bd836124d4565b92508282039050818111156136d5576136d4612d12565b5b92915050565b7f4e487b7100000000000000000000000000000000000000000000000000000000600052603160045260246000fd5b600060408201905061371f6000830185612569565b61372c6020830184612652565b939250505056fe4142434445464748494a4b4c4d4e4f505152535455565758595a6162636465666768696a6b6c6d6e6f707172737475767778797a303132333435363738392b2fa2646970667358221220cfa18c7815dec39b3817c8e7bff31939c43f346bdc4e4cde6dc3a7aab0f7d12f64736f6c634300081b0033",
  "linkReferences": {},
  "deployedLinkReferences": {}
}